S01600003332387053657269616C546573742E7372656301
S11300000C946E000C9478000C9478000C94780096
S11300100C9478000C9478000C9478000C9478007C
S11300200C9478000C9478000C9478000C9478006C
S11300300C9478000C9478000C9478000C9478005C
S11300400C9478000C9478000C9478000C9478004C
S11300500C9478000C9478000C9478000C9478003C
S11300600C9478000C9478000A5472616E736D6974
S11300707373616F20456E636572726164613A20C7
S11300804279652C204279652100005472616E73B7
S11300906D6974696E646F207072696D65697261EF
S11300A0206D656E736167656D2070617261206F8C
S11300B020636F6D70757461646F72212044696789
S11300C06974652061676F7261202D2050617261CF
S11300D02073616972203C2A3E0A000011241FBE6D
S11300E0CFEFD8E0DEBFCDBF0E947A000C94C500EC
S11300F00C94000087E690E00E9495008BE890E065
S11301000E94B2000E94AA00C82F8DE20E94A200A1
S11301108EE30E94A2008C2F0E94A200CA3291F7A3
S113012088E690E00E94B200FFCF9093C5008093D0
S1130130C4001092C00088E18093C10086E08093DF
S1130140C2000895E0ECF0E0908195FFFDCF80932C
S1130150C6000895E0ECF0E080818823ECF78091FC
S1130160C6000895CF93DF93EC01FC0184918823AA
S113017049F0FE0184910E94A2002196FE0184911F
S11101808111F7CFDF91CF910895F894FFCF4E
S9030000FC
