:100000000C945D000C9467000C9467000C946700DE
:100010000C9467000C9467000C9467000C946700C4
:100020000C9467000C9467000C9467000C946700B4
:100030000C9467000C9467000C9467000C946700A4
:100040000C9467000C9467000C9467000C94670094
:100050000C9467000C9467000C9467000C94670084
:100060000C9467000C9467005472616E736D697430
:10007000696E646F207072696D65697261206D656B
:100080006E736167656D2070617261206F20636FB0
:100090006D70757461646F7221204469676974655D
:1000A0002061676F7261202D205061726120736141
:1000B0006972203C2A3E0A00000011241FBECFEFC7
:1000C000D8E0DEBFCDBF0E940A010C946C010C94F5
:1000D0000000611102C05A9801C05A9A9BB19F70EA
:1000E000282F207F922B9BB945E04A95F1F700001D
:1000F0005B9A95E09A95F1F700005B9840EF4A957E
:10010000F1F72BB1922F9F7040E1849F9001112451
:10011000292B2BB995E09A95F1F700005B9A45E001
:100120004A95F1F700005B9890EF9A95F1F761110D
:1001300008C0843030F48FE39FE10197F1F700C0ED
:10014000000008955A985B982FEF89EF90E02150B6
:1001500080409040E1F700C000008BB18F70806359
:100160008BB925E02A95F1F700005B9A85E08A9526
:10017000F1F700005B9890EF9A95F1F78FE19EE41C
:100180000197F1F700C0000095E09A95F1F70000A3
:100190005B9A25E02A95F1F700005B9880EF8A953D
:1001A000F1F78FE193E00197F1F700C0000095E0CF
:1001B0009A95F1F700005B9A25E02A95F1F7000087
:1001C0005B9880EF8A95F1F78BB18F7080628BB965
:1001D00095E09A95F1F700005B9A25E02A95F1F7F2
:1001E00000005B9880EF8A95F1F760E088E20E945A
:1001F000690060E088E00E94690060E081E00E94A0
:10020000690060E08CE00E94690060E080E80E9484
:10021000690008958FEF8AB987E690E00E943C015B
:100220000E94A20088E690E00E9459010E945101BC
:100230008C3441F40E945101D82F0E945101C82FE3
:100240001CE409C0843439F40E945101D82F0E9463
:100250005101C82F14E460E080E80E94690061E069
:10026000812F0E94690061E08D2F0E94690061E08A
:100270008C2F0E946900DACF9093C5008093C40050
:100280001092C00088E18093C10086E08093C20094
:100290000895E0ECF0E0908195FFFDCF8093C600DB
:1002A0000895E0ECF0E080818823ECF78091C600AF
:1002B0000895CF93DF93EC01FC018491882349F0EA
:1002C000FE0184910E9449012196FE0184918111D1
:0C02D000F7CFDF91CF910895F894FFCF95
:00000001FF
